{
  "contractName": "Tickets",
  "abi": [
    {
      "inputs": [],
      "stateMutability": "nonpayable",
      "type": "constructor"
    },
    {
      "anonymous": false,
      "inputs": [
        {
          "indexed": false,
          "internalType": "address",
          "name": "caller",
          "type": "address"
        },
        {
          "indexed": false,
          "internalType": "bool",
          "name": "update",
          "type": "bool"
        }
      ],
      "name": "Evento",
      "type": "event"
    },
    {
      "inputs": [],
      "name": "admin",
      "outputs": [
        {
          "internalType": "address payable",
          "name": "",
          "type": "address"
        }
      ],
      "stateMutability": "view",
      "type": "function",
      "constant": true
    },
    {
      "inputs": [
        {
          "internalType": "uint256",
          "name": "",
          "type": "uint256"
        }
      ],
      "name": "avaiable_tickets",
      "outputs": [
        {
          "internalType": "uint256",
          "name": "",
          "type": "uint256"
        }
      ],
      "stateMutability": "view",
      "type": "function",
      "constant": true
    },
    {
      "inputs": [
        {
          "internalType": "uint256",
          "name": "",
          "type": "uint256"
        }
      ],
      "name": "cities",
      "outputs": [
        {
          "internalType": "string",
          "name": "name",
          "type": "string"
        },
        {
          "internalType": "string",
          "name": "description",
          "type": "string"
        },
        {
          "internalType": "uint256",
          "name": "price",
          "type": "uint256"
        },
        {
          "internalType": "string",
          "name": "picture",
          "type": "string"
        },
        {
          "internalType": "uint256",
          "name": "amount",
          "type": "uint256"
        }
      ],
      "stateMutability": "view",
      "type": "function",
      "constant": true
    },
    {
      "inputs": [],
      "name": "cities_quantity",
      "outputs": [
        {
          "internalType": "uint256",
          "name": "",
          "type": "uint256"
        }
      ],
      "stateMutability": "view",
      "type": "function",
      "constant": true
    },
    {
      "inputs": [
        {
          "internalType": "uint256",
          "name": "_qtd",
          "type": "uint256"
        },
        {
          "internalType": "uint256",
          "name": "_city_id",
          "type": "uint256"
        }
      ],
      "name": "buyTicket",
      "outputs": [],
      "stateMutability": "payable",
      "type": "function",
      "payable": true
    },
    {
      "inputs": [
        {
          "internalType": "uint256",
          "name": "_city_id",
          "type": "uint256"
        }
      ],
      "name": "getTicketsAmount",
      "outputs": [
        {
          "internalType": "uint256",
          "name": "",
          "type": "uint256"
        }
      ],
      "stateMutability": "view",
      "type": "function",
      "constant": true
    },
    {
      "inputs": [
        {
          "internalType": "uint256",
          "name": "_city_id",
          "type": "uint256"
        }
      ],
      "name": "getMyTicketsAmount",
      "outputs": [
        {
          "internalType": "uint256",
          "name": "",
          "type": "uint256"
        }
      ],
      "stateMutability": "view",
      "type": "function",
      "constant": true
    },
    {
      "inputs": [
        {
          "internalType": "uint256",
          "name": "_city_id",
          "type": "uint256"
        },
        {
          "internalType": "uint256",
          "name": "_qtd",
          "type": "uint256"
        }
      ],
      "name": "addMoreTickets",
      "outputs": [],
      "stateMutability": "nonpayable",
      "type": "function"
    },
    {
      "inputs": [
        {
          "internalType": "uint256",
          "name": "_city_id",
          "type": "uint256"
        },
        {
          "internalType": "uint256",
          "name": "_qtd",
          "type": "uint256"
        }
      ],
      "name": "spendTicket",
      "outputs": [],
      "stateMutability": "nonpayable",
      "type": "function"
    },
    {
      "inputs": [],
      "name": "widrawFunds",
      "outputs": [],
      "stateMutability": "nonpayable",
      "type": "function"
    }
  ],
  "bytecode": "0x608060405260048055604051806080016040528067016345785d8a000067ffffffffffffffff16815260200167016345785d8a000067ffffffffffffffff1681526020016702c68af0bb14000067ffffffffffffffff1681526020016702c68af0bb14000067ffffffffffffffff1681525060059060046200008392919062000592565b503480156200009157600080fd5b50336000806101000a81548173ffffffffffffffffffffffffffffffffffffffff021916908373ffffffffffffffffffffffffffffffffffffffff160217905550600a6002600080815260200190815260200160002081905550600a600260006001815260200190815260200160002081905550600a600260006002815260200190815260200160002081905550600a6002600060038152602001908152602001600020819055506040518060a001604052806040518060400160405280601481526020017f47656e657661202d20537769747a65726c616e64000000000000000000000000815250815260200160405180602001604052806000815250815260200167016345785d8a00008152602001604051806080016040528060608152602001620016f7606091398152602001600a815250600360008081526020019081526020016000206000820151816000019080519060200190620001f7929190620005f0565b50602082015181600101908051906020019062000216929190620005f0565b506040820151816002015560608201518160030190805190602001906200023f929190620005f0565b50608082015181600401559050506040518060a001604052806040518060400160405280600e81526020017f41757374696e202d205465786173000000000000000000000000000000000000815250815260200160405180602001604052806000815250815260200167016345785d8a000081526020016040518060a001604052806075815260200162001682607591398152602001600a815250600360006001815260200190815260200160002060008201518160000190805190602001906200030c929190620005f0565b5060208201518160010190805190602001906200032b929190620005f0565b5060408201518160020155606082015181600301908051906020019062000354929190620005f0565b50608082015181600401559050506040518060a001604052806040518060400160405280601481526020017f5a7572696368202d20537769747a65726c616e6400000000000000000000000081525081526020016040518060200160405280600081525081526020016702c68af0bb14000081526020016040518060800160405280605881526020016200162a605891398152602001600a8152506003600060028152602001908152602001600020600082015181600001908051906020019062000421929190620005f0565b50602082015181600101908051906020019062000440929190620005f0565b5060408201518160020155606082015181600301908051906020019062000469929190620005f0565b50608082015181600401559050506040518060a001604052806040518060400160405280601881526020017f4c6f7320416e67656c6573202d2043616c69666f726e6961000000000000000081525081526020016040518060200160405280600081525081526020016702c68af0bb1400008152602001604051806080016040528060608152602001620015ca606091398152602001600a8152506003600060038152602001908152602001600020600082015181600001908051906020019062000536929190620005f0565b50602082015181600101908051906020019062000555929190620005f0565b506040820151816002015560608201518160030190805190602001906200057e929190620005f0565b506080820151816004015590505062000705565b828054828255906000526020600020908101928215620005dd579160200282015b82811115620005dc578251829067ffffffffffffffff16905591602001919060010190620005b3565b5b509050620005ec919062000681565b5090565b828054620005fe90620006a0565b90600052602060002090601f0160209004810192826200062257600085556200066e565b82601f106200063d57805160ff19168380011785556200066e565b828001600101855582156200066e579182015b828111156200066d57825182559160200191906001019062000650565b5b5090506200067d919062000681565b5090565b5b808211156200069c57600081600090555060010162000682565b5090565b60006002820490506001821680620006b957607f821691505b60208210811415620006d057620006cf620006d6565b5b50919050565b7f4e487b7100000000000000000000000000000000000000000000000000000000600052602260045260246000fd5b610eb580620007156000396000f3fe6080604052600436106100915760003560e01c80639fca7f39116100595780639fca7f39146101aa578063a78955a1146101c1578063cc25925a146101ea578063f851a44014610215578063faa0c71f1461024057610091565b8063298ec208146100965780633dd4a5e8146100b25780636a51b918146100ef57806372982628146101305780639de0206c1461016d575b600080fd5b6100b060048036038101906100ab9190610956565b610269565b005b3480156100be57600080fd5b506100d960048036038101906100d4919061092d565b61044c565b6040516100e69190610c1f565b60405180910390f35b3480156100fb57600080fd5b506101166004803603810190610111919061092d565b610464565b604051610127959493929190610b57565b60405180910390f35b34801561013c57600080fd5b506101576004803603810190610152919061092d565b610632565b6040516101649190610c1f565b60405180910390f35b34801561017957600080fd5b50610194600480360381019061018f919061092d565b61068c565b6040516101a19190610c1f565b60405180910390f35b3480156101b657600080fd5b506101bf6106a9565b005b3480156101cd57600080fd5b506101e860048036038101906101e39190610956565b61076a565b005b3480156101f657600080fd5b506101ff6107f0565b60405161020c9190610c1f565b60405180910390f35b34801561022157600080fd5b5061022a6107f6565b6040516102379190610b13565b60405180910390f35b34801561024c57600080fd5b5061026760048036038101906102629190610956565b61081a565b005b81600260008381526020019081526020016000205410156102bf576040517f08c379a00000000000000000000000000000000000000000000000000000000081526004016102b690610bbf565b60405180910390fd5b81600582815481106102fa577f4e487b7100000000000000000000000000000000000000000000000000000000600052603260045260246000fd5b906000526020600020015461030f9190610cac565b3414610350576040517f08c379a000000000000000000000000000000000000000000000000000000000815260040161034790610bff565b60405180910390fd5b816003600083815260200190815260200160002060040160008282546103769190610d06565b92505081905550816002600083815260200190815260200160002060008282546103a09190610d06565b9250508190555081600160003373ffffffffffffffffffffffffffffffffffffffff1673ffffffffffffffffffffffffffffffffffffffff168152602001908152602001600020600083815260200190815260200160002060008282546104079190610c56565b925050819055507fd5c59a6baf153d9c91912bf2f27a08e16a3d11e489496520110e5024cfd3b9af336001604051610440929190610b2e565b60405180910390a15050565b60026020528060005260406000206000915090505481565b600360205280600052604060002060009150905080600001805461048790610dc7565b80601f01602080910402602001604051908101604052809291908181526020018280546104b390610dc7565b80156105005780601f106104d557610100808354040283529160200191610500565b820191906000526020600020905b8154815290600101906020018083116104e357829003601f168201915b50505050509080600101805461051590610dc7565b80601f016020809104026020016040519081016040528092919081815260200182805461054190610dc7565b801561058e5780601f106105635761010080835404028352916020019161058e565b820191906000526020600020905b81548152906001019060200180831161057157829003601f168201915b5050505050908060020154908060030180546105a990610dc7565b80601f01602080910402602001604051908101604052809291908181526020018280546105d590610dc7565b80156106225780601f106105f757610100808354040283529160200191610622565b820191906000526020600020905b81548152906001019060200180831161060557829003601f168201915b5050505050908060040154905085565b6000600160003373ffffffffffffffffffffffffffffffffffffffff1673ffffffffffffffffffffffffffffffffffffffff1681526020019081526020016000206000838152602001908152602001600020549050919050565b600060026000838152602001908152602001600020549050919050565b60008054906101000a900473ffffffffffffffffffffffffffffffffffffffff1673ffffffffffffffffffffffffffffffffffffffff163373ffffffffffffffffffffffffffffffffffffffff161461070157600080fd5b60008054906101000a900473ffffffffffffffffffffffffffffffffffffffff1673ffffffffffffffffffffffffffffffffffffffff166108fc479081150290604051600060405180830381858888f19350505050158015610767573d6000803e3d6000fd5b50565b60008054906101000a900473ffffffffffffffffffffffffffffffffffffffff1673ffffffffffffffffffffffffffffffffffffffff163373ffffffffffffffffffffffffffffffffffffffff16146107c257600080fd5b806002600084815260200190815260200160002060008282546107e59190610c56565b925050819055505050565b60045481565b60008054906101000a900473ffffffffffffffffffffffffffffffffffffffff1681565b80600160003373ffffffffffffffffffffffffffffffffffffffff1673ffffffffffffffffffffffffffffffffffffffff16815260200190815260200160002060008481526020019081526020016000205410156108ad576040517f08c379a00000000000000000000000000000000000000000000000000000000081526004016108a490610bdf565b60405180910390fd5b80600160003373ffffffffffffffffffffffffffffffffffffffff1673ffffffffffffffffffffffffffffffffffffffff1681526020019081526020016000206000848152602001908152602001600020600082825461090d9190610d06565b925050819055505050565b60008135905061092781610e68565b92915050565b60006020828403121561093f57600080fd5b600061094d84828501610918565b91505092915050565b6000806040838503121561096957600080fd5b600061097785828601610918565b925050602061098885828601610918565b9150509250929050565b61099b81610d4c565b82525050565b6109aa81610d3a565b82525050565b6109b981610d5e565b82525050565b60006109ca82610c3a565b6109d48185610c45565b93506109e4818560208601610d94565b6109ed81610e57565b840191505092915050565b6000610a05602083610c45565b91507f6e6f7420656e6f756768207469636b65747320666f72207468697320636974796000830152602082019050919050565b6000610a45603683610c45565b91507f596f75206d7573742068617665206174206c656173742074686520616d6f756e60008301527f74206f66207469636b65747320796f7520636c61696d000000000000000000006020830152604082019050919050565b6000610aab602c83610c45565b91507f5061796d656e74206d75737420626520746865207269676874206f6e652c206360008301527f6865636b207468656d20757000000000000000000000000000000000000000006020830152604082019050919050565b610b0d81610d8a565b82525050565b6000602082019050610b286000830184610992565b92915050565b6000604082019050610b4360008301856109a1565b610b5060208301846109b0565b9392505050565b600060a0820190508181036000830152610b7181886109bf565b90508181036020830152610b8581876109bf565b9050610b946040830186610b04565b8181036060830152610ba681856109bf565b9050610bb56080830184610b04565b9695505050505050565b60006020820190508181036000830152610bd8816109f8565b9050919050565b60006020820190508181036000830152610bf881610a38565b9050919050565b60006020820190508181036000830152610c1881610a9e565b9050919050565b6000602082019050610c346000830184610b04565b92915050565b600081519050919050565b600082825260208201905092915050565b6000610c6182610d8a565b9150610c6c83610d8a565b9250827fffffffffffffffffffffffffffffffffffffffffffffffffffffffffffffffff03821115610ca157610ca0610df9565b5b828201905092915050565b6000610cb782610d8a565b9150610cc283610d8a565b9250817fffffffffffffffffffffffffffffffffffffffffffffffffffffffffffffffff0483118215151615610cfb57610cfa610df9565b5b828202905092915050565b6000610d1182610d8a565b9150610d1c83610d8a565b925082821015610d2f57610d2e610df9565b5b828203905092915050565b6000610d4582610d6a565b9050919050565b6000610d5782610d6a565b9050919050565b60008115159050919050565b600073ffffffffffffffffffffffffffffffffffffffff82169050919050565b6000819050919050565b60005b83811015610db2578082015181840152602081019050610d97565b83811115610dc1576000848401525b50505050565b60006002820490506001821680610ddf57607f821691505b60208210811415610df357610df2610e28565b5b50919050565b7f4e487b7100000000000000000000000000000000000000000000000000000000600052601160045260246000fd5b7f4e487b7100000000000000000000000000000000000000000000000000000000600052602260045260246000fd5b6000601f19601f8301169050919050565b610e7181610d8a565b8114610e7c57600080fd5b5056fea2646970667358221220570bd5ee955ee9c7971dfccd14e45448706c7a5fcba9f00bc34f5f82e31e1e3f64736f6c6343000800003368747470733a2f2f63616c69666f726e69612e6f6e65676f7669616a612e636f6d2f77702d636f6e74656e742f75706c6f6164732f323031392f31322f7475646f2d736f6272652d6c6f732d616e67656c65732d31313430783639342e6a706768747470733a2f2f7777772e6575616e646f70656c6f6d756e646f2e636f6d2f77702d636f6e74656e742f75706c6f6164732f323031382f30362f6f5f7175655f66617a65725f656d5f7a7572697175655f31312e6a706768747470733a2f2f696d616765732e7468696e6b61647669736f722e636f6d2f636f6e747269622f636f6e74656e742f75706c6f6164732f73697465732f3431352f323031392f31322f323031392d31322d31322d61757374696e2d74657861735f5368757474657273746f636b5f4d492e6a7067687474703a2f2f322e62702e626c6f6773706f742e636f6d2f2d4674444f653258594e76672f5576617a4a6c39434346492f41414141414141414c41382f6f503371426d517a6c76452f73313630302f5a25433325424372696368312e6a7067",
  "immutableReferences": {},
  "source": "\n// // SPDX-License-Identifier: GPL-3.0\npragma solidity ^0.8.0;\n\ncontract Tickets{\n  address payable public admin;\n  mapping (address => mapping(uint => uint)) owners_quantity;\n  mapping (uint => uint) public avaiable_tickets;\n  mapping (uint => Params) public cities;\n  uint public cities_quantity = 4;\n\nstruct Params{\n  string name;\n  string description;\n  uint price;\n  string picture;\n  uint amount;\n}\n\n//0 geneva, 1 austin, 2 zurich, 3 los angeles\n  uint[] PRICES = [100000000000000000 wei, \n                   100000000000000000 wei,\n                   200000000000000000 wei,\n                   200000000000000000 wei];\n\n  event Evento (address caller, bool update);\n  \n  constructor() {\n    admin = payable(msg.sender);\n    // setting amount of tickets\n    // redundant fix it later\n    avaiable_tickets[0] = 10; //geneva\n    avaiable_tickets[1] = 10; //austin\n    avaiable_tickets[2] = 10; //zurich\n    avaiable_tickets[3] = 10; //los angeles  \n\n    cities[0] = Params({\n      name:'Geneva - Switzerland',\n      description:'',\n      price: 100000000000000000 wei,\n      picture: 'http://2.bp.blogspot.com/-FtDOe2XYNvg/UvazJl9CCFI/AAAAAAAALA8/oP3qBmQzlvE/s1600/Z%C3%BCrich1.jpg',\n      amount: 10\n    });\n\n    cities[1] = Params({\n      name:'Austin - Texas',\n      description:'',\n      price: 100000000000000000 wei,\n      picture: 'https://images.thinkadvisor.com/contrib/content/uploads/sites/415/2019/12/2019-12-12-austin-texas_Shutterstock_MI.jpg',\n      amount: 10\n    }); \n    \n    cities[2] = Params({\n      name:'Zurich - Switzerland',\n      description:'',\n      price: 200000000000000000 wei,\n      picture: 'https://www.euandopelomundo.com/wp-content/uploads/2018/06/o_que_fazer_em_zurique_11.jpg',\n      amount: 10\n    }); \n    \n     cities[3] = Params({\n      name:'Los Angeles - California',\n      description:'',\n      price: 200000000000000000 wei,\n      picture: 'https://california.onegoviaja.com/wp-content/uploads/2019/12/tudo-sobre-los-angeles-1140x694.jpg',\n      amount: 10\n    }); \n    \n \n  \n\n  }\n\n /*\n  Adding new cities for consumers buy tickets\n  only admin\n */\n  // function addNewCity(bytes memory _name, bytes memory _description, uint memory _price, bytes memory _picture) external {\n  //   require(msg.sender == admin, 'only admin!');\n  // }\n\n  function buyTicket(uint _qtd, uint _city_id)payable external{\n    require(avaiable_tickets[_city_id] >= _qtd, 'not enough tickets for this city');\n    require(msg.value == PRICES[_city_id] * _qtd, 'Payment must be the right one, check them up');\n\n    //also change Params.amount here, remove amount.\n    cities[_city_id].amount -= _qtd;\n    avaiable_tickets[_city_id] -= _qtd;\n    owners_quantity[msg.sender][_city_id] += _qtd;\n\n    emit Evento(msg.sender, true);\n  }\n  \n  \n  //amount of each city\n  function getTicketsAmount(uint _city_id) view external returns(uint){\n    \n    return avaiable_tickets[_city_id];\n  }\n  \n  //amount of my tickets \n  function getMyTicketsAmount(uint _city_id) view external returns(uint){\n    \n   return owners_quantity[msg.sender][_city_id];\n  }\n  \n  /*\n    supplying more tickets to determined city\n    only admin\n  */\n  function addMoreTickets(uint _city_id, uint _qtd) external {\n      require(msg.sender == admin);\n      avaiable_tickets[_city_id] += _qtd;\n  }\n  \n  function spendTicket(uint _city_id, uint _qtd) external{\n      require(owners_quantity[msg.sender][_city_id] >= _qtd, 'You must have at least the amount of tickets you claim');\n      owners_quantity[msg.sender][_city_id] -= _qtd;\n  }\n  \n  \n  function widrawFunds() external{\n    require(msg.sender == admin);\n    admin.transfer(address(this).balance);\n    \n    }\n\n//   modifier onlyAdm{\n//       require(msg.sender == admin);\n//       _;\n//   }\n\n\n}\n",
  "sourcePath": "/Users/gustavo/Desktop/project1/tickets-chain/contracts/Tickets.sol",
  "compiler": {
    "name": "solc",
    "version": "0.8.0+commit.c7dfd78e.Emscripten.clang"
  },
  "schemaVersion": "3.3.4",
  "updatedAt": "2021-04-08T16:18:44.986Z",
  "networkType": "ethereum",
  "devdoc": {
    "kind": "dev",
    "methods": {},
    "version": 1
  },
  "userdoc": {
    "kind": "user",
    "methods": {},
    "version": 1
  }
}